{
  "contractName": "BasicToken",
  "abi": [
    {
      "anonymous": false,
      "inputs": [
        {
          "indexed": true,
          "name": "from",
          "type": "address"
        },
        {
          "indexed": true,
          "name": "to",
          "type": "address"
        },
        {
          "indexed": false,
          "name": "value",
          "type": "uint256"
        }
      ],
      "name": "Transfer",
      "type": "event"
    },
    {
      "constant": true,
      "inputs": [],
      "name": "totalSupply",
      "outputs": [
        {
          "name": "",
          "type": "uint256"
        }
      ],
      "payable": false,
      "stateMutability": "view",
      "type": "function"
    },
    {
      "constant": false,
      "inputs": [
        {
          "name": "_to",
          "type": "address"
        },
        {
          "name": "_value",
          "type": "uint256"
        }
      ],
      "name": "transfer",
      "outputs": [
        {
          "name": "",
          "type": "bool"
        }
      ],
      "payable": false,
      "stateMutability": "nonpayable",
      "type": "function"
    },
    {
      "constant": true,
      "inputs": [
        {
          "name": "_owner",
          "type": "address"
        }
      ],
      "name": "balanceOf",
      "outputs": [
        {
          "name": "balance",
          "type": "uint256"
        }
      ],
      "payable": false,
      "stateMutability": "view",
      "type": "function"
    }
  ],
  "bytecode": "0x60806040526002805460ff1916905534801561001a57600080fd5b5061029d8061002a6000396000f3006080604052600436106100565763ffffffff7c010000000000000000000000000000000000000000000000000000000060003504166318160ddd811461005b57806370a0823114610082578063a9059cbb146100b0575b600080fd5b34801561006757600080fd5b506100706100f5565b60408051918252519081900360200190f35b34801561008e57600080fd5b5061007073ffffffffffffffffffffffffffffffffffffffff600435166100fb565b3480156100bc57600080fd5b506100e173ffffffffffffffffffffffffffffffffffffffff60043516602435610123565b604080519115158252519081900360200190f35b60015490565b73ffffffffffffffffffffffffffffffffffffffff1660009081526020819052604090205490565b60025460009060ff161561013657600080fd5b60023660441461014257fe5b73ffffffffffffffffffffffffffffffffffffffff8416151561016457600080fd5b3360009081526020819052604090205483111561018057600080fd5b336000908152602081905260409020546101a0908463ffffffff61024916565b336000908152602081905260408082209290925573ffffffffffffffffffffffffffffffffffffffff8616815220546101df908463ffffffff61025b16565b73ffffffffffffffffffffffffffffffffffffffff8516600081815260208181526040918290209390935580518681529051919233927fddf252ad1be2c89b69c2b068fc378daa952ba7f163c4a11628f55a4df523b3ef9281900390910190a35060019392505050565b60008282111561025557fe5b50900390565b60008282018381101561026a57fe5b93925050505600a165627a7a723058205882bea17fc0484de853547ae60521ab21c87c46698e64e0195d3be5791767cd0029",
  "source": "pragma solidity ^0.4.23;\n\n/**\n* TANZO (TZO) ERC20 Token Smart Contract implementation.\n*\n* Copyright © 2018 by Tanzo Ltd.\n*\n* Developed By: NewCryptoBlock.\n*\n* Licensed under the Apache License, Version 2.0 (the \"License\").\n* You may not use this file except in compliance with the License.\n*\n* Unless required by applicable law or agreed to in writing, software\n* distributed under the License is distributed on an \"AS IS\" BASIS,\n* WITHOUT WARRANTIES OR CONDITIONS OF ANY KIND (express or implied).\n*/\n\nimport \"./ERC20Basic.sol\";\nimport \"../math/SafeMath.sol\";\n\n/**\n * @title Basic token\n * @dev Basic version of StandardToken, with no allowances.\n */\ncontract BasicToken is ERC20Basic {\n  using SafeMath for uint256;\n\n  mapping(address => uint256) balances;\n\n  uint256 totalSupply_;\n\n  bool transfersFrozen = false;\n\n  /**\n   * @dev Modifier throws if shortened address.\n   */\n  modifier onlyPayloadSize(uint numwords) {\n    assert(msg.data.length == numwords * 32 + 4);\n    _;\n  }\n\n  /**\n   * @dev Modifier throws if transfers are frozen.\n   */\n  modifier whenNotFrozen() {\n    if (transfersFrozen) revert();\n    _;\n  }\n\n  /**\n  * @dev total number of tokens in existence\n  */\n  function totalSupply() public view returns (uint256) {\n    return totalSupply_;\n  }\n\n  /**\n  * @dev transfer token for a specified address\n  * @param _to The address to transfer to.\n  * @param _value The amount to be transferred.\n  */\n  function transfer(address _to, uint256 _value) whenNotFrozen onlyPayloadSize(2) public returns (bool) {\n    require(_to != address(0));\n    require(_value <= balances[msg.sender]);\n\n    // SafeMath.sub will throw if there is not enough balance.\n    balances[msg.sender] = balances[msg.sender].sub(_value);\n    balances[_to] = balances[_to].add(_value);\n    emit Transfer(msg.sender, _to, _value);\n    return true;\n  }\n\n  /**\n  * @dev Gets the balance of the specified address.\n  * @param _owner The address to query the the balance of.\n  * @return An uint256 representing the amount owned by the passed address.\n  */\n  function balanceOf(address _owner) public view returns (uint256 balance) {\n    return balances[_owner];\n  }\n\n}\n",
  "sourcePath": "/Users/dimitarjelev/Projects/tanzo/contracts/contracts/lib/token/BasicToken.sol",
  "compiler": {
    "name": "solc",
    "version": "0.4.24+commit.e67f0147.Emscripten.clang"
  },
  "schemaVersion": "2.0.0",
  "updatedAt": "2018-06-13T06:14:23.185Z"
}