{
  "contractName": "TanzoTokenMock",
  "abi": [
    {
      "constant": false,
      "inputs": [],
      "name": "freezeTransfers",
      "outputs": [],
      "payable": false,
      "stateMutability": "nonpayable",
      "type": "function"
    },
    {
      "constant": true,
      "inputs": [],
      "name": "name",
      "outputs": [
        {
          "name": "",
          "type": "string"
        }
      ],
      "payable": false,
      "stateMutability": "view",
      "type": "function"
    },
    {
      "constant": false,
      "inputs": [
        {
          "name": "_spender",
          "type": "address"
        },
        {
          "name": "_value",
          "type": "uint256"
        }
      ],
      "name": "approve",
      "outputs": [
        {
          "name": "",
          "type": "bool"
        }
      ],
      "payable": false,
      "stateMutability": "nonpayable",
      "type": "function"
    },
    {
      "constant": true,
      "inputs": [],
      "name": "totalSupply",
      "outputs": [
        {
          "name": "",
          "type": "uint256"
        }
      ],
      "payable": false,
      "stateMutability": "view",
      "type": "function"
    },
    {
      "constant": false,
      "inputs": [
        {
          "name": "_from",
          "type": "address"
        },
        {
          "name": "_to",
          "type": "address"
        },
        {
          "name": "_value",
          "type": "uint256"
        }
      ],
      "name": "transferFrom",
      "outputs": [
        {
          "name": "",
          "type": "bool"
        }
      ],
      "payable": false,
      "stateMutability": "nonpayable",
      "type": "function"
    },
    {
      "constant": true,
      "inputs": [],
      "name": "decimals",
      "outputs": [
        {
          "name": "",
          "type": "uint8"
        }
      ],
      "payable": false,
      "stateMutability": "view",
      "type": "function"
    },
    {
      "constant": false,
      "inputs": [],
      "name": "unfreezeTransfers",
      "outputs": [],
      "payable": false,
      "stateMutability": "nonpayable",
      "type": "function"
    },
    {
      "constant": false,
      "inputs": [
        {
          "name": "_receiver",
          "type": "address"
        },
        {
          "name": "_value",
          "type": "uint256"
        },
        {
          "name": "_extraData",
          "type": "bytes"
        }
      ],
      "name": "transferAndCall",
      "outputs": [
        {
          "name": "",
          "type": "bool"
        }
      ],
      "payable": false,
      "stateMutability": "nonpayable",
      "type": "function"
    },
    {
      "constant": false,
      "inputs": [],
      "name": "claimOwnership",
      "outputs": [],
      "payable": false,
      "stateMutability": "nonpayable",
      "type": "function"
    },
    {
      "constant": true,
      "inputs": [],
      "name": "version",
      "outputs": [
        {
          "name": "",
          "type": "string"
        }
      ],
      "payable": false,
      "stateMutability": "view",
      "type": "function"
    },
    {
      "constant": false,
      "inputs": [
        {
          "name": "_spender",
          "type": "address"
        },
        {
          "name": "_subtractedValue",
          "type": "uint256"
        }
      ],
      "name": "decreaseApproval",
      "outputs": [
        {
          "name": "",
          "type": "bool"
        }
      ],
      "payable": false,
      "stateMutability": "nonpayable",
      "type": "function"
    },
    {
      "constant": false,
      "inputs": [
        {
          "name": "_token",
          "type": "address"
        },
        {
          "name": "_to",
          "type": "address"
        }
      ],
      "name": "claimTokens",
      "outputs": [
        {
          "name": "",
          "type": "bool"
        }
      ],
      "payable": false,
      "stateMutability": "nonpayable",
      "type": "function"
    },
    {
      "constant": true,
      "inputs": [
        {
          "name": "_owner",
          "type": "address"
        }
      ],
      "name": "balanceOf",
      "outputs": [
        {
          "name": "balance",
          "type": "uint256"
        }
      ],
      "payable": false,
      "stateMutability": "view",
      "type": "function"
    },
    {
      "constant": true,
      "inputs": [],
      "name": "owner",
      "outputs": [
        {
          "name": "",
          "type": "address"
        }
      ],
      "payable": false,
      "stateMutability": "view",
      "type": "function"
    },
    {
      "constant": true,
      "inputs": [],
      "name": "TOTAL_SUPPLY",
      "outputs": [
        {
          "name": "",
          "type": "uint256"
        }
      ],
      "payable": false,
      "stateMutability": "view",
      "type": "function"
    },
    {
      "constant": true,
      "inputs": [],
      "name": "symbol",
      "outputs": [
        {
          "name": "",
          "type": "string"
        }
      ],
      "payable": false,
      "stateMutability": "view",
      "type": "function"
    },
    {
      "constant": false,
      "inputs": [
        {
          "name": "_to",
          "type": "address"
        },
        {
          "name": "_value",
          "type": "uint256"
        }
      ],
      "name": "transfer",
      "outputs": [
        {
          "name": "",
          "type": "bool"
        }
      ],
      "payable": false,
      "stateMutability": "nonpayable",
      "type": "function"
    },
    {
      "constant": true,
      "inputs": [],
      "name": "start",
      "outputs": [
        {
          "name": "",
          "type": "uint256"
        }
      ],
      "payable": false,
      "stateMutability": "view",
      "type": "function"
    },
    {
      "constant": false,
      "inputs": [
        {
          "name": "_start",
          "type": "uint256"
        },
        {
          "name": "_end",
          "type": "uint256"
        }
      ],
      "name": "setLimits",
      "outputs": [],
      "payable": false,
      "stateMutability": "nonpayable",
      "type": "function"
    },
    {
      "constant": false,
      "inputs": [
        {
          "name": "_spender",
          "type": "address"
        },
        {
          "name": "_value",
          "type": "uint256"
        },
        {
          "name": "_extraData",
          "type": "bytes"
        }
      ],
      "name": "approveAndCall",
      "outputs": [
        {
          "name": "",
          "type": "bool"
        }
      ],
      "payable": false,
      "stateMutability": "nonpayable",
      "type": "function"
    },
    {
      "constant": false,
      "inputs": [
        {
          "name": "_spender",
          "type": "address"
        },
        {
          "name": "_addedValue",
          "type": "uint256"
        }
      ],
      "name": "increaseApproval",
      "outputs": [
        {
          "name": "",
          "type": "bool"
        }
      ],
      "payable": false,
      "stateMutability": "nonpayable",
      "type": "function"
    },
    {
      "constant": true,
      "inputs": [
        {
          "name": "_owner",
          "type": "address"
        },
        {
          "name": "_spender",
          "type": "address"
        }
      ],
      "name": "allowance",
      "outputs": [
        {
          "name": "",
          "type": "uint256"
        }
      ],
      "payable": false,
      "stateMutability": "view",
      "type": "function"
    },
    {
      "constant": true,
      "inputs": [],
      "name": "pendingOwner",
      "outputs": [
        {
          "name": "",
          "type": "address"
        }
      ],
      "payable": false,
      "stateMutability": "view",
      "type": "function"
    },
    {
      "constant": true,
      "inputs": [],
      "name": "end",
      "outputs": [
        {
          "name": "",
          "type": "uint256"
        }
      ],
      "payable": false,
      "stateMutability": "view",
      "type": "function"
    },
    {
      "constant": false,
      "inputs": [
        {
          "name": "newOwner",
          "type": "address"
        }
      ],
      "name": "transferOwnership",
      "outputs": [],
      "payable": false,
      "stateMutability": "nonpayable",
      "type": "function"
    },
    {
      "inputs": [],
      "payable": false,
      "stateMutability": "nonpayable",
      "type": "constructor"
    },
    {
      "anonymous": false,
      "inputs": [
        {
          "indexed": true,
          "name": "owner",
          "type": "address"
        }
      ],
      "name": "Freeze",
      "type": "event"
    },
    {
      "anonymous": false,
      "inputs": [
        {
          "indexed": true,
          "name": "owner",
          "type": "address"
        }
      ],
      "name": "Unfreeze",
      "type": "event"
    },
    {
      "anonymous": false,
      "inputs": [
        {
          "indexed": true,
          "name": "previousOwner",
          "type": "address"
        },
        {
          "indexed": true,
          "name": "newOwner",
          "type": "address"
        }
      ],
      "name": "OwnershipTransferred",
      "type": "event"
    },
    {
      "anonymous": false,
      "inputs": [
        {
          "indexed": true,
          "name": "owner",
          "type": "address"
        },
        {
          "indexed": true,
          "name": "spender",
          "type": "address"
        },
        {
          "indexed": false,
          "name": "value",
          "type": "uint256"
        }
      ],
      "name": "Approval",
      "type": "event"
    },
    {
      "anonymous": false,
      "inputs": [
        {
          "indexed": true,
          "name": "from",
          "type": "address"
        },
        {
          "indexed": true,
          "name": "to",
          "type": "address"
        },
        {
          "indexed": false,
          "name": "value",
          "type": "uint256"
        }
      ],
      "name": "Transfer",
      "type": "event"
    }
  ],
  "bytecode": "0x6002805460ff1916905560c0604052600360808190527f312e30000000000000000000000000000000000000000000000000000000000060a09081526200004a9160089190620000cb565b503480156200005857600080fd5b5060048054600160a060020a031916339081179091556b019d971e4fe8401e74000000600181905560008281526020818152604080832084905580519384525191927fddf252ad1be2c89b69c2b068fc378daa952ba7f163c4a11628f55a4df523b3ef929081900390910190a362000170565b828054600181600116156101000203166002900490600052602060002090601f016020900481019282601f106200010e57805160ff19168380011785556200013e565b828001600101855582156200013e579182015b828111156200013e57825182559160200191906001019062000121565b506200014c92915062000150565b5090565b6200016d91905b808211156200014c576000815560010162000157565b90565b6111a680620001806000396000f3006080604052600436106101485763ffffffff7c010000000000000000000000000000000000000000000000000000000060003504166301502460811461014d57806306fdde0314610164578063095ea7b3146101ee57806318160ddd1461022657806323b872dd1461024d578063313ce5671461027757806331c420d4146102a25780634000aea0146102b75780634e71e0c81461032057806354fd4d5014610335578063661884631461034a57806369ffa08a1461036e57806370a08231146103955780638da5cb5b146103b6578063902d55a5146103e757806395d89b41146103fc578063a9059cbb14610411578063be9a655514610435578063c4590d3f1461044a578063cae9ca5114610465578063d73dd623146104ce578063dd62ed3e146104f2578063e30c397814610519578063efbe1c1c1461052e578063f2fde38b14610543575b600080fd5b34801561015957600080fd5b50610162610564565b005b34801561017057600080fd5b506101796105c2565b6040805160208082528351818301528351919283929083019185019080838360005b838110156101b357818101518382015260200161019b565b50505050905090810190601f1680156101e05780820380516001836020036101000a031916815260200191505b509250505060405180910390f35b3480156101fa57600080fd5b50610212600160a060020a03600435166024356105f9565b604080519115158252519081900360200190f35b34801561023257600080fd5b5061023b6106a8565b60408051918252519081900360200190f35b34801561025957600080fd5b50610212600160a060020a03600435811690602435166044356106ae565b34801561028357600080fd5b5061028c610845565b6040805160ff9092168252519081900360200190f35b3480156102ae57600080fd5b5061016261084a565b3480156102c357600080fd5b50604080516020600460443581810135601f8101849004840285018401909552848452610212948235600160a060020a03169460248035953695946064949201919081908401838280828437509497506108a39650505050505050565b34801561032c57600080fd5b506101626109cd565b34801561034157600080fd5b50610179610a7b565b34801561035657600080fd5b50610212600160a060020a0360043516602435610b09565b34801561037a57600080fd5b50610212600160a060020a0360043581169060243516610c0b565b3480156103a157600080fd5b5061023b600160a060020a0360043516610d5d565b3480156103c257600080fd5b506103cb610d78565b60408051600160a060020a039092168252519081900360200190f35b3480156103f357600080fd5b5061023b610d87565b34801561040857600080fd5b50610179610d97565b34801561041d57600080fd5b50610212600160a060020a0360043516602435610dce565b34801561044157600080fd5b5061023b610ecd565b34801561045657600080fd5b50610162600435602435610ed3565b34801561047157600080fd5b50604080516020600460443581810135601f8101849004840285018401909552848452610212948235600160a060020a0316946024803595369594606494920191908190840183828082843750949750610eff9650505050505050565b3480156104da57600080fd5b50610212600160a060020a0360043516602435611014565b3480156104fe57600080fd5b5061023b600160a060020a03600435811690602435166110bc565b34801561052557600080fd5b506103cb6110f7565b34801561053a57600080fd5b5061023b611106565b34801561054f57600080fd5b50610162600160a060020a036004351661110c565b600454600160a060020a0316331461057b57600080fd5b60025460ff1615156105c0576002805460ff1916600117905560405133907faf85b60d26151edd11443b704d424da6c43d0468f2235ebae3d1904dbc32304990600090a25b565b60408051808201909152600b81527f54616e7a6f20546f6b656e000000000000000000000000000000000000000000602082015281565b600060023660441461060757fe5b8215806106355750336000908152600360209081526040808320600160a060020a0388168452909152902054155b151561064057600080fd5b336000818152600360209081526040808320600160a060020a03891680855290835292819020879055805187815290519293927f8c5be1e5ebec7d5bd14f71427d1e84f3dd0314c0f7b2291e5b200ac8c7c3b925929181900390910190a35060019392505050565b60015490565b60025460009060ff16156106c157600080fd5b6003366064146106cd57fe5b600160a060020a03841615156106e257600080fd5b600160a060020a03851660009081526020819052604090205483111561070757600080fd5b600160a060020a038516600090815260036020908152604080832033845290915290205483111561073757600080fd5b600160a060020a038516600090815260208190526040902054610760908463ffffffff61115216565b600160a060020a038087166000908152602081905260408082209390935590861681522054610795908463ffffffff61116416565b600160a060020a038086166000908152602081815260408083209490945591881681526003825282812033825290915220546107d7908463ffffffff61115216565b600160a060020a03808716600081815260036020908152604080832033845282529182902094909455805187815290519288169391927fddf252ad1be2c89b69c2b068fc378daa952ba7f163c4a11628f55a4df523b3ef929181900390910190a3600191505b509392505050565b601281565b600454600160a060020a0316331461086157600080fd5b60025460ff16156105c0576002805460ff1916905560405133907fca5069937e68fd197927055037f59d7c90bf75ac104e6e375539ef480c3ad6ee90600090a2565b6000836108b08185610dce565b1561083d576040517f141469ce0000000000000000000000000000000000000000000000000000000081523360048201818152602483018790523060448401819052608060648501908152875160848601528751600160a060020a0387169563141469ce95948b94938b939192909160a490910190602085019080838360005b83811015610948578181015183820152602001610930565b50505050905090810190601f1680156109755780820380516001836020036101000a031916815260200191505b5095505050505050602060405180830381600087803b15801561099757600080fd5b505af11580156109ab573d6000803e3d6000fd5b505050506040513d60208110156109c157600080fd5b506001925061083d9050565b600554600160a060020a031633146109e457600080fd5b60065443111580156109f857506007544310155b1515610a0357600080fd5b600554600454604051600160a060020a0392831692909116907f8be0079c531659141344cd1fd0a4f28419497f9722a3daafe3b4186f6b6457e090600090a3600580546004805473ffffffffffffffffffffffffffffffffffffffff19908116600160a060020a038416179091551690556000600655565b6008805460408051602060026001851615610100026000190190941693909304601f81018490048402820184019092528181529291830182828015610b015780601f10610ad657610100808354040283529160200191610b01565b820191906000526020600020905b815481529060010190602001808311610ae457829003601f168201915b505050505081565b600080600236604414610b1857fe5b336000908152600360209081526040808320600160a060020a0389168452909152902054915081841115610b6f57336000908152600360209081526040808320600160a060020a0389168452909152812055610ba4565b610b7f828563ffffffff61115216565b336000908152600360209081526040808320600160a060020a038a1684529091529020555b336000818152600360209081526040808320600160a060020a038a168085529083529281902054815190815290519293927f8c5be1e5ebec7d5bd14f71427d1e84f3dd0314c0f7b2291e5b200ac8c7c3b925929181900390910190a3506001949350505050565b60045460009081908190600160a060020a03163314610c2957600080fd5b604080517f70a082310000000000000000000000000000000000000000000000000000000081523060048201529051869350600160a060020a038416916370a082319160248083019260209291908290030181600087803b158015610c8d57600080fd5b505af1158015610ca1573d6000803e3d6000fd5b505050506040513d6020811015610cb757600080fd5b5051604080517fa9059cbb000000000000000000000000000000000000000000000000000000008152600160a060020a0387811660048301526024820184905291519293509084169163a9059cbb916044808201926020929091908290030181600087803b158015610d2857600080fd5b505af1158015610d3c573d6000803e3d6000fd5b505050506040513d6020811015610d5257600080fd5b505195945050505050565b600160a060020a031660009081526020819052604090205490565b600454600160a060020a031681565b6b019d971e4fe8401e7400000081565b60408051808201909152600381527f545a4f0000000000000000000000000000000000000000000000000000000000602082015281565b60025460009060ff1615610de157600080fd5b600236604414610ded57fe5b600160a060020a0384161515610e0257600080fd5b33600090815260208190526040902054831115610e1e57600080fd5b33600090815260208190526040902054610e3e908463ffffffff61115216565b3360009081526020819052604080822092909255600160a060020a03861681522054610e70908463ffffffff61116416565b600160a060020a038516600081815260208181526040918290209390935580518681529051919233927fddf252ad1be2c89b69c2b068fc378daa952ba7f163c4a11628f55a4df523b3ef9281900390910190a35060019392505050565b60075481565b600454600160a060020a03163314610eea57600080fd5b80821115610ef757600080fd5b600655600755565b600083610f0c81856105f9565b1561083d576040517f8f4ffcb10000000000000000000000000000000000000000000000000000000081523360048201818152602483018790523060448401819052608060648501908152875160848601528751600160a060020a03871695638f4ffcb195948b94938b939192909160a490910190602085019080838360005b83811015610fa4578181015183820152602001610f8c565b50505050905090810190601f168015610fd15780820380516001836020036101000a031916815260200191505b5095505050505050600060405180830381600087803b158015610ff357600080fd5b505af1158015611007573d6000803e3d6000fd5b505050506001915061083d565b600060023660441461102257fe5b336000908152600360209081526040808320600160a060020a0388168452909152902054611056908463ffffffff61116416565b336000818152600360209081526040808320600160a060020a038a168085529083529281902085905580519485525191937f8c5be1e5ebec7d5bd14f71427d1e84f3dd0314c0f7b2291e5b200ac8c7c3b925929081900390910190a35060019392505050565b60006002366044146110ca57fe5b5050600160a060020a03918216600090815260036020908152604080832093909416825291909152205490565b600554600160a060020a031681565b60065481565b600454600160a060020a0316331461112357600080fd5b6005805473ffffffffffffffffffffffffffffffffffffffff1916600160a060020a0392909216919091179055565b60008282111561115e57fe5b50900390565b60008282018381101561117357fe5b93925050505600a165627a7a72305820e16050441728bd7b20cf67cba338e0aa75b850dc44859ae807c37409527b7f880029",
  "source": "pragma solidity ^0.4.23;\n\nimport \"../TanzoToken.sol\";\n\ncontract TanzoTokenMock is TanzoToken {\n\n  constructor() public {}\n\n}\n",
  "sourcePath": "D:\\Projects\\ico-platform\\src\\ico-platform-tanzo-contracts\\contracts\\mocks\\TanzoTokenMock.sol",
  "compiler": {
    "name": "solc",
    "version": "0.4.24+commit.e67f0147.Emscripten.clang"
  },
  "schemaVersion": "2.0.0",
  "updatedAt": "2018-06-05T07:54:57.994Z"
}